:0C0000000C943F000C9400000C940000D5
:10000C000C9400000C9400000C9400000C94000064
:10001C000C948B000C9400000C9400000C946F005A
:10002C000C9400000C9400000C9400000C94000044
:10003C000C9400000C9400000C9400000C94000034
:10004C000C9400000C94000080003F065B4F666D22
:10005C007D077F6F0300020008000500000001000F
:10006C00620254000A00650256000A000400600097
:10007C000000F894EE27ECBBF1E0FBBFEBBFE5BF53
:10008C00F8E1F1BDE1BD8DE0A2E0BB27ED938A95CF
:10009C00E9F780E098E0A0E6ED930197E9F7EAE64E
:1000AC00F0E085919591009761F0A591B59105903F
:1000BC001590BF01F00105900D920197E1F7FB013E
:1000CC00F0CFEFE5EDBFE8E0EEBFC0E6D2E00C9478
:1000DC00F800AA93BA93EA93FA93EFB7EA93A3E6DC
:1000EC00B2E0ED91FD913196FE93EE93F4D016971C
:1000FC0029F4E0E0E0936302E0936402E991EFBF3E
:10010C00F991E991B991A99118950A92AA93BA9388
:10011C00EA93FA93EFB7EA93E0E0E0936202F60118
:10012C0031966F01F601E17019F4E0E8E093620298
:10013C00EAE0F0E0EC15FD0511F00C94F000E09114
:10014C006002F09161023196E0936002F0936102DB
:10015C00CC24DD24A0916002B09161021697D1F5F8
:10016C00F40131964F01E0E0E0936002E09361020C
:10017C00EAE0F0E0E815F90569F5F50131965F0163
:10018C0088249924E6E0F0E0EA15FB0519F5F20164
:10019C0031962F01AA24BB24EAE0F0E0E415F50522
:1001AC0021F400240614070409F005C0F30131966C
:1001BC003F0144245524E4E0F0E0E415F50529F46E
:1001CC00E2E0F0E0E615F70509F004C044245524FC
:1001DC0066247724E991EFBFF991E991B991A9913E
:1001EC0009901895E0E0EBBBEABBE8BBE7BBE5BBCD
:1001FC00EFEFE4BBE0E0E2BBEFEFE1BBECE0E3BF31
:10020C00E0E0E2BFE3E6ECBFE0E0EFBDECE0EEBD2A
:10021C00E0E0EDBDECBDE7BDE6BDEAE7EBBDE2E13C
:10022C00EABDE0E0E9BDE8BDE2BDE5BDE4BDE3BD8E
:10023C00E5BFE4BFE2E1E9BFE0E8E8B9E0E0E0BF38
:10024C007894E0916302F0916402309741F4EEEF00
:10025C00E2BBA5E6B2E0A60DB71DEC9139C03BD0D0
:10026C00119739F4EDEFE2BBA5E6B2E0A40DB51D94
:10027C002BC031D0129741F4EBEFE2BBA5E6B2E014
:10028C00AA0DBB1DEC9124C026D0139739F4E7EFCF
:10029C00E2BBA5E6B2E0A80DB91D16C01CD01497A0
:1002AC0051F4EFEEE2BBE0916002F0916102EB5988
:1002BC00FD4FE0810DC00FD0159759F4EFEDE2BB67
:1002CC00A5E6B2E0AC0DBD1DEC91A0916202EA2B4B
:1002DC00E5BBB7CFFFCFA0916302B0916402089544
:00000001FF
