:020000000C945E
:1000020048010C9400000C9400000C9400000C9425
:1000120000000C9400000C9400000C9400000C945E
:1000220000000C9400000C9400000C9400000C944E
:1000320000000C9400000C9400000C9400000C943E
:1000420000000C9400000C9400000C9400000C942E
:10005200000005072060000000000000005F0000B3
:100062000007000700147F147F14242A7F2A12231A
:100072001308646236495522500005030000001C33
:100082002241000041221C00082A1C2A0808083EBE
:100092000808005030000008080808080030300046
:1000A2000020100804023E5149453E00427F4000B4
:1000B20042615149462141454B311814127F1027A4
:1000C200454545393C4A49493001710905033649DC
:1000D200494936064949291E00363600000056367F
:1000E20000000008142241141414141441221408AC
:1000F200000201510906324979413E7E1111117EF9
:100102007F494949363E414141227F4141221C7F7C
:10011200494949417F090901013E414151327F0864
:1001220008087F00417F41002040413F017F0814C1
:1001320022417F404040407F0204027F7F0408103A
:100142007F3E4141413E7F090909063E4151215E00
:100152007F09192946464949493101017F01013F79
:100162004040403F1F2040201F7F2018207F631403
:100172000814630304780403615149454300007F76
:100182004141020408102041417F000004020102A3
:10019200044040404040000102040020545454787E
:1001A2007F484444383844444420384444487F38E3
:1001B20054545418087E090102081454543C7F0810
:1001C20004047800447D40002040443D00007F103C
:1001D200284400417F40007C041804787C08040411
:1001E2007838444444387C14141408081414187CD5
:1001F2007C080404084854545420043F4440203CE2
:100202004040207C1C2040201C3C4030403C442884
:100212001028440C5050503C4464544C440008365E
:10022200410000007F000000413608000201020484
:10023200027F4141417F000103070F1F3F7FFF0003
:100242003F001F000000040042616861726568207F
:100252004B61766F757369206E656A616400393926
:10026200343331323137000001002D4E414E004906
:100272004E460000160060024A0209007602600241
:1002820008000400420201009F026A020000F89482
:10029200EE27ECBBF1E0FBBFEBBFE5BFF8E1F1BD40
:1002A200E1BD8DE0A2E0BB27ED938A95E9F780E0FE
:1002B20098E0A0E6ED930197E9F7E6E7F2E0859191
:1002C2009591009761F0A591B59105901590BF01A8
:1002D200F00105900D920197E1F7FB01F0CFEFE5F8
:1002E200EDBFE8E0EEBFC0E6D2E00C9478012697BD
:1002F2000CED15E0E4E5F0E0E883F983DE0164D17A
:10030200C8D10E94890AE0E0EA93EA93A0E6B2E04B
:100312000E94DA06E0E0EA93E5E3EA93A6E7B2E0B8
:100322000E94DA06D8010E94AE0BB3D1E2E0E0935C
:100332008702EFEFE0938802E7E3EA93EFE3EA93C1
:10034200EBE5EA93AFE30E941707EBE5EA93EFE3ED
:100352000E948D0AE7E3EA93EFE3EA93E7E30E9460
:10036200930AE7E3EA93E0E2EA93EDE20E94930A5A
:10037200E5E6EA93E0E20E948D0AE9E4EA93E0E02E
:10038200EA93E5E60E94930AE9E4EA93E0E0EA935D
:10039200EBE3EA93AEE00E941707E4E3EA93E6E1B7
:1003A200EA93EDE20E94930AE4E3EA93E6E1EA9338
:1003B200E4E30E94970AEEE0EA93EBE30E94970AD5
:1003C200E7E0EA93EEE3EA93A7E00E941707E4E38B
:1003D200EA93E7E0EA93E1E3EA93A7E00E941707D2
:1003E200EEE3EA93E7E00E949E0AE1E3EA93E7E0A4
:1003F200EA93E1E3EA93A3E00E941707E1E3EA93B9
:10040200E3E00E949E0AD8010E94AE0B42D1E0E0D6
:100412000E94A40A07D0E1E00E94A40A0E94890A6D
:10042200F6CFFFCF082C092881F46A187B080E94B6
:10043200AB0A1CF0E3E0F0E04F01D3010E94B40AE2
:100442001CF0E1E0F0E04F013FC0E1E0F0E0E81530
:10045200F90581F46A0C7B1C0E94AB0A1CF0E2E0F5
:10046200F0E04F01D501A60DB71DDF9714F08824E7
:1004720099242AC0E2E0F0E0E815F905A1F46A0C3B
:100482007B1C4A185B08D2010E94B40A1CF0E1E00E
:10049200F0E04F01D501A60DB71DDF971CF0E3E098
:1004A200F0E04F0111C06A187B084A185B08D201BC
:1004B2000E94B40A14F088249924D3010E94B40A39
:1004C2001CF0E2E0F0E04F0108950000C09A000045
:1004D2000895C098C498C59808951A93F6DF19B381
:1004E200C098E12F19910895AA931A93E0E0EABB0C
:1004F200C19AC298E981EF5F1E2F10FF02C0C49A11
:1005020001C0C49811FF02C0C59A01C0C598E5DFB9
:10051200E078E9F718811FC1AA93A981E5DF0E945B
:10052200B90A19C1E0919D02EA93E0919C02EF732E
:10053200E064AE2FF1DFE0919D02EA93E0919E022A
:10054200E86BAE2FE9DF0895AA93E981E0939C025C
:10055200E295EF70E695E695E0939D02E881E093DF
:100562009E02E0DFF8C0A0919C02AF5FA0939C02C4
:10057200A03818F0E0E0E0939C02E0919C02EF7357
:1005820031F4E0919C02EA93A0919E02DDDF08958E
:10059200AA93A0919D02A8DFC29A0E94B90A21964D
:1005A2000895A0919D02A0DFE0E0EABBC19AC29A41
:1005B20094DF0895AA93E981EA93E9810E94C20A2D
:1005C200F0DFB0DFEEDFC7C0BA93AA931A93B89AEE
:1005D200B99ABA9ABB9AC39ABC9ABD9A7ADFC3985F
:1005E200A4E6B0E00E94AE0BC39A10E0123040F4D1
:1005F2001A93AFE391DF1A931395A0EC8DDFF6CF38
:10060200E1E0E0937F02E0E0E0938002E981FA8199
:100612003097A9F0A981BA810E94DE0BE093830290
:10062200F093840212960E94DE0BE0939802F093FC
:100632009902A981BA8114960E94DE0B0AC0E0E0F9
:10064200F0E0E0938302F0938402E0939802F09347
:100652009902E0939A02F0939B02E1E0E093850213
:10066200E0938602E0938702EFEFE0938802E1E0F5
:10067200E0938F02E0E9F2E0FA93EA93EFEFEA9374
:10068200A8E0B0E00E94080A04D0E1E018812396B5
:1006920008950E94050C00E030E0E0918002E03015
:1006A20009F00FEF383078F4E0E0EA93A32F3F5FD0
:1006B2004BDF10E0A12F1F5FA03820F4A02F0E9473
:1006C200C80AF8CFEFCFE0E0EA93A0E03DDFE0E038
:1006D200EA93A0E09ED30E940C0C24960895AA935C
:1006E2001A930A93AC81A03818F4AB81A03408F0B5
:1006F20016C0EC81EA93AC815DDF1E2F13DFEB8124
:10070200E770A1E00E94BC0B0E2FEA81E03011F0ED
:10071200102B03C0E02FE0951E23A12F39DF198192
:10072200088125960895AA93A981A03818F4A88172
:10073200A03410F0E0E00FC0E981EA93A9813ADF2A
:100742001E2EE881E770A1E00E94BC0BE12111F0AE
:10075200E1E001C0E0E022960895AA931A93ED81A8
:10076200EA93AD8127DF1E2FDDDEE981E63011F04D
:10077200E73039F4EB81EA93AA810E94230AEB83E2
:1007820008C0E33021F4EB81E095EB8302C0E03056
:1007920021F4EA81E0951E2302C0E23029F4EA81C5
:1007A200AB81EA231E2B0EC0E13029F4EA81AB8132
:1007B200EA231E2707C0E43029F4EA81E095AB81E1
:1007C200EA2B1E23A12F0E94C80A1881269608959B
:1007D200AA9323970E94030CA889A03848F4AF85F6
:1007E200A03430F4AE85A03019F0AD85A03009F404
:1007F200C8C1EE85E887A889BB27EE850E94CC0A8E
:10080200A138E0E0BE0720F0A889E0E8EA1BEE8705
:100812002D85AF85BB27ED850E94CC0AA134E0E08F
:10082200BE0720F0AF85E0E4EA1BED87A985A5307D
:1008320011F00C947604EC85E13009F4A2C1E330A6
:1008420039F4E0919A02F0919B02309709F499C130
:100852000885ED85E695E695E6953E2FE22FE77051
:1008620019F4AD852A17E1F0A02FBB27E32F0E94D0
:10087200D00AAA85BB850E94D40A2695269526957C
:10088200532F5F935F5FE22FAF91EA1748F0102F6B
:10089200E12F1150E03019F00E94D90AF9CFF1CFBF
:1008A200AE850A1711F1EE85AA85BB85F0E00E949C
:1008B200D40AED85E77009F03F5F20E02F932F5FA8
:1008C200E32FAF91AE1788F41E851F931F5FE02FB1
:1008D200AF91AE1718F40E94D90AF7CFEE85AE8118
:1008E200BF81F0E00E94D40AE9CFEF85E7703E2F86
:1008F200ED85E03011F40C94C205EA85FB85EE83A8
:10090200FF8310E00889303011F00C94EE04AD85BD
:10091200A83010F40C94E904E985E03011F0E330DA
:1009220009F402C0E63009F402C0E73009F402C05B
:10093200E53009F402C0E83009F402C0E93021F4DC
:100942000A93E8890E94C20A1F931F5FEE85AF9146
:10095200AE17B8F5A985A53061F423DEE3DD0E9468
:10096200E60AFA93EA931DDEAE2F0E946A0AFBDDC5
:1009720027C0E985E83011F450E00EC0E93011F4E7
:100982005FEF0AC00E94E60A0E94EF0A5E2FE98525
:10099200E63011F0E73021F40E94F50A5E2F06C01E
:1009A200E33011F4509502C0E03021F4A52F0E94EB
:1009B200C80A06C00E94F90AEFEFEA93AD85CDDEC0
:1009C200C3CFEF85E85FEF87ED85E850ED87D1C0B3
:1009D2005D8520E0E0E0ED877AC0E32FAD85AE0FC4
:1009E200A93020F42D85E0E0ED8703C0E8E0E31BA9
:1009F2002E2F3A93A22F0E94180A4E2FE985E53036
:100A0200F1F41F931F5FEE85AF91AE17B8F40E9409
:100A1200FF0AAE2FE32F0E94C40B0E94060BE32FA6
:100A2200A42F0E94C40BE095E1215E2B0E94E60AEE
:100A3200FA93EA93A52F0E946A0AE3CF2CC0E8300A
:100A420011F450E003C0E930A9F45FEF0E94F50A07
:100A5200AE2FE32F0E94BC0B5E2F1F931F5FEE850C
:100A6200AF91AE1730F40E94F90A4A93A0E075DE06
:100A7200F4CF11C01F931F5FEE85AF91AE1758F4EC
:100A82000E94110BAE2FE32F0E94BC0BEA934A93F4
:100A9200AD8563DEEFCFED85E03009F472C0AD8540
:100AA200A83028F4ED85E21B5E2FE0E003C0532F4F
:100AB200ED85E850ED8710E0EF85E85FEF87E8E02D
:100AC200E31B2E2F0889EA85FB85EE83FF83E52F42
:100AD200F0E0E85CFD4F4491E985E530F1F41F93C5
:100AE2001F5FEE85AF91AE17B8F40E94FF0AAE2FDA
:100AF200E22F0E94BC0B0E94060BE22FA42F0E9441
:100B0200BC0BE095E1215E2B0E94E60AFA93EA9380
:100B1200A52F0E946A0AE3CF2CC0E83011F450E0FE
:100B220003C0E930A9F45FEF0E94F50AAE2FE22F6D
:100B32000E94C40B5E2F1F931F5FEE85AF91AE170D
:100B420030F40E94F90A4A93A0E007DEF4CF11C004
:100B52001F931F5FEE85AF91AE1758F40E94110BE1
:100B6200AE2FE22F0E94C40BEA934A93AD85F5DDC6
:100B7200EFCFE885AA85BB850E941E0BEA87FB871B
:100B8200B7CE0E940A0C619608950E94220B24F0AF
:100B9200E0E0F0E00C94210AA881B981A038E0E0FD
:100BA200BE0724F0EFE7F0E00C94210AE881F98116
:100BB2000C94210A0E94220B24F0E0E0F0E00C9455
:100BC200210AA881B981A034E0E0BE0724F0EFE356
:100BD200F0E00C94210AE881F9810C94210AAA938D
:100BE200E981EA93E981EA93A0917F0278DD0C948E
:100BF200210ABA93AA9323970E94290B8F01002EF0
:100C0200012A19F4E0E0F0E058C00E94300B0F8294
:100C12000E94300B0E820E94300B0886EB85A8855D
:100C2200EA1718F4E0E0F0E048C0F8010F5F1F4F48
:100C32005491E52FA885AE0FEB85EA1718F0E0E096
:100C4200F0E03BC0EE81E695E695E6954E2FEE810B
:100C5200E77009F04F5FEF81E03091F0A985BA8526
:100C6200EC93A885EB85EA1BF0E0DF01EF810E949F
:100C7200D00ADF01E42F0E94D00AE00FF11F1DC04D
:100C82009801E52FF0E00E0F1F1FA885AF5FA88720
:100C9200A150EB85AE1758F4F9012F5F3F4FA49195
:100CA200B0E0E42F0E94D00A0E0F1F1FEECFF90111
:100CB200E491A985BA85EC93F8010E940A0C2C965E
:100CC2000895E0E0E0938102A0918202BB270E9496
:100CD200350B0E94CC0AE09186020E94CC0A6ADFA0
:100CE200E09382020895AA9321970E94290B3097DC
:100CF20011F40C94D506AF81AA3009F451C0EF81EA
:100D0200EA93DE01179675DFAF01309719F40E945E
:100D12000A0C13C3E0918502AE81EA0F3E2FA09127
:100D22008102BB27E32F0E941E0B8F010138E0E0F6
:100D32001E0718F0032F1127C4DFE0918102EA9306
:100D4200E0918202EA93E885EA930E94350BEA93E6
:100D5200E1E0EA935A934A93A6E03ADDE0918102F8
:100D6200AE81EA0FEA93E0918202EA93E091850272
:100D7200EA930E94350B0E943C0BE0918102EA93B8
:100D8200A09182020E94350BEA0FEA933A93E09116
:100D920086020E943C0BE0E8F0E0E017F10721F444
:100DA20090DF0E940A0CC9C2009381020E940A0CC1
:100DB200C4C2BA93AA931A93EC81EA93AC8129D064
:100DC200A981BA81ED91A983BA831E2FE03019F06F
:100DD200A12F89DFF5CF18810C94160AAA93EA8114
:100DE200EA93EA81EA93E0918802AA81EA2319F060
:100DF200E0917F0202C0E0918002AE2F70DCE881B8
:100E0200EE0FE883E03011F4E1E0E883E8810C942E
:100E1200680AAA93A981BB27B8DEE0938102A88160
:100E2200BB27C8DEE09382020C94210AAA932B9777
:100E32000E94030CAC89BB27A8DEEC8BAA89BB27D6
:100E4200A4DEEA8BAB89BB27A0DEEB8BA989BB278B
:100E52009CDEE98BEA89E0938102E989E0938202D0
:100E6200E1E0E887E989AB89EA1771F51C89AA896B
:100E72001A1731F41A93EC89EA93A1E0AFDFC7C0E5
:100E8200AA891A1730F4EA89E11B0E2F41E050E0DB
:100E920006C0AA89E12FEA1B0E2F4FEF5FEF3B89B5
:100EA200E0E0EE830E94460B38F41A933A933395AE
:100EB200AA8594DFEF83F6CFEF81E887140FE02F46
:100EC2000150E03061F7A3C0EA89AC89EA1739F52D
:100ED2003B89A9893A1730F4E989E31B2E2FE1E017
:100EE200F0E006C0A989E32FEA1B2E2FEFEFFFEFF8
:100EF200ED87FE871C89E0E0EE830E94460B30F40A
:100F02001A9313950E944E0BEF83F7CFEF81E88778
:100F1200ED853E0FE22F2150E03061F778C0E0E02E
:100F2200EE830E94460B10F00C9408081C893B8942
:100F3200E1E02E2F0E2FAA89BB27EC890E94520BCB
:100F4200AD0155232AF40FEFFA010E94B80BAF014D
:100F5200FA01EE0FFF1FEF87F88BA989BB27EB89F8
:100F62000E94520BAD87BE87AE85AA233AF42FEFBB
:100F7200ED85FE850E94B80BED87FE87ED85FE8527
:100F8200EE0FFF1FEB87FC871A933A93A1E026DF4F
:100F9200E887E0E0E987EA87AD85BE854A175B0707
:100FA200BCF0100FEB85FC850E94560BA985BA8513
:100FB2004A175B072CF4320FAF85B8890E945D0B8C
:100FC2001A930E944E0BE887EA89E11751F718C07D
:100FD200320FEF85F8890E94560BED85FE85A985B3
:100FE200BA85EA17FB072CF4100FAB85BC850E946B
:100FF2005D0B1A930E944E0BE887E989E31741F7CC
:10100200EB89EF5FEB8BE989EF5FE98B8ACF0E9477
:101012000A0C65960895BA93AA9323970E94030C2B
:10102200ED85E887E0918702EF83E0917F02EE830E
:10103200AA89BB27EF850E941E0B8F01A989BB27B6
:10104200E8890E94520B9D01A989BB27E8890E9469
:101052001E0BAF01E885E178E13871F0E885E078B0
:10106200F1F4AD85BE85EAE5F0E00E94640B1CF068
:101072000E946D0B0CF413C0332312F00E94720B0A
:10108200AF81A23020F02230E0E03E070CF407C02E
:101092000E94760B21F40A93A22FA150A0DDE885CD
:1010A200E878E83891F0E885E078C9F4AD85BE8546
:1010B200A25FBE4F0E947F0B3CF0AD85BE85A25F52
:1010C200BE4F0E94840B0CF40AC00E94890B38F0B8
:1010D2000E94900B21F40A93A42FAF5F80DDAA89AE
:1010E200BB27EF850E94520B8D01112312F40C9441
:1010F200BF08E885E278E23891F0E885E07811F5FA
:10110200AD85BE85A65ABF4F0E947F0B3CF0AD85D0
:10111200BE85A65ABF4F0E94840B0CF413C0332322
:1011220012F00E94720BAF81A23020F02230E0E078
:101132003E070CF407C00E94760B21F40A93A22FFB
:10114200A1504DDDE885E478E43871F0E885E07877
:10115200A9F4AD85BE85EEE0F1E00E94640B1CF0BF
:101162000E946D0B0CF40AC00E94890B38F00E9499
:10117200900B21F40A93A42FAF5F31DDAA89BB271C
:10118200E8890E941E0B8F01A989BB27EF850E9467
:10119200520B9D01A989BB27EF850E941E0BAF014F
:1011A200E885E178E13881F0E885E078F1F4EB85D3
:1011B200FC85AD85BE85AE17BF072CF0E985FA85A3
:1011C200EA17FB070CF411C033237AF00E94720B6A
:1011D200AF81A23050F0E02FEE5F0E94990B29F40C
:1011E200E02FEF5FEA93A22FFADCE885E878E8388F
:1011F20071F0E885E078C1F4AD85BE85E8E6F1E0FE
:101202000E94640B1CF00E946D0B0CF40DC00E9436
:10121200890B50F0E02FEE5F0E94A10B29F4E02F22
:10122200EF5FEA93A42FDBDCAA89BB27E8890E943F
:10123200520B8D01112312F40C946F09E885E278A8
:10124200E23871F0E885E07809F5AD85BE85E4EB1A
:10125200F0E00E94640B1CF00E946D0B0CF416C0AF
:101262003323A2F00E94720BAF81A23020F0023031
:10127200E0E01E070CF40AC0E02FE2500E94990B36
:1012820029F4E02FE150EA93A22FA9DCE885E47863
:10129200E43891F0E885E07809F5AD85BE85AC5477
:1012A200BF4F0E947F0B3CF0AD85BE85AC54BF4F53
:1012B2000E94840B0CF412C00E94890B20F00230B1
:1012C200E0E01E070CF40AC0E02FE2500E94A10BDE
:1012D20029F4E02FE150EA93A42F81DC0E940A0C4A
:1012E20063960895AA930E94050CAF81BB27ED81F6
:1012F2000E94520B4ADC1E2FAF81BB27ED810E9458
:10130200CC0A43DC0E2FAE81BB27EC810E94520B2C
:1013120051DC3E2FAE81BB27EC810E94CC0A4ADC15
:101322002E2F1A933A930A93A32F80DD1A932A93AE
:101332000A93A22F7BDD0E940C0C28960895AA9393
:101342000E94030CA985A03818F4A885A03408F0DF
:1013520050C050918702E52F5150E03011F40C94A7
:10136200FA09EF81E03009F444C0EF81E150EF83E4
:10137200EF5F0E2FE02FF0E0A5E0B0E0AE1BBF0B59
:10138200FD010E94CC0B0E94D10B9F0110E0AE81A7
:10139200A03459F40E94A90B1A93A02FA3DF0E9434
:1013A200A90B0A93A12F9EDF0FC00E94A90B1A93CB
:1013B2000A93EA85F0E0FA93EA93E0E0F0E0FA9328
:1013C200EA93A0E0B0E027DE1F5F33231AF4E12F97
:1013D200F0E007C00150A12FBB27E02F0E94520B63
:1013E200FD01EE0FFF1F31962E0F3F1F011778F6FA
:1013F200B2CF0E940A0C2A960895AA93EA81EA9330
:10140200EA81EA93EA81EA93AFE899DF60C0BA938E
:10141200AA93B981A881109631F0FC81EB816A818F
:1014220061931197E9F7EB81FC8125960895AA93C0
:10143200E881F0E0E85CFD4FA491E9810E94BC0BD9
:1014420022960895AA931A93E981E63011F0E930C1
:1014520019F410917F0209C0E83019F4109180024A
:1014620004C0E730A1F410918F02E0918002E030D5
:1014720049F0103019F0EFEF188129C0EA81E095A8
:10148200188125C0103019F4E0E0188120C0EA81EB
:1014920018811DC0BA93AA93EA81E13021F4E88150
:1014A200F981E49114C0E23029F4A881B9810E9443
:1014B200E20B0DC0E33041F4A881B981E0919802BA
:1014C200F0919902099503C0A881B981EC91239604
:1014D2000895AA93EB81E03029F4E881A981BA81C9
:1014E200EC9314C0E23031F4E881A981BA810E9400
:1014F200EE0B0CC0E33051F4E981FA81FA93EA93DE
:10150200AA81E0919A02F0919B020995249608958E
:10151200A2E3B0E00C94AE0BEA93EBE5EA93A0E20F
:101522000C941707EA93A0E20C941707EA93A7E03A
:101532000E941707EBE3EA930895EA93EEE3EA9336
:10154200A3E00C941707E0937F024A926A92A4E008
:101552000C94FE094A0C5B1CD501A40DB51DAF37D6
:10156200E0E0BE070895AA19BB090E94FF0B089587
:10157200C198EFEFEABBE881EBBB0E9466020C94D4
:101582006A02E695E695E695AE2F0C94A5020E94B6
:10159200C9020C94B402F0E0AE0FBF1F0895F0E050
:1015A2000E94D60B0895EA0FFB1FEE83FF83089576
:1015B200EC85EA93EF81F8853196EF83F8873197CE
:1015C200FA93EA93A0E00C946A0AEC85EA93EF811D
:1015D200F8853196EF83F887319708956627772744
:1015E200DF01CB010C944B0A5A93AA850C94230A6F
:1015F2000A930395E889EA935A9308950A93039507
:10160200A8890E94DB02E42308955E2FEC85EA9309
:10161200AF81B885882799270E944B0A1E2E08950C
:101622000A930395E889EA93EE85EA93E985FA85B8
:101632003196E987FA873197D1CFF0E0EA0FFB1FA5
:101642000895BA93AA93A881B9810E94FF0B0895C5
:101652000E94030CE0918302F09184020895F80144
:101662000F5F1F4F04900895E0918302F09184026E
:101672003196E4910895EA93E0E0EA93E0E0F0E045
:10168200FA93EA93A8E00C94E903AE81AF5FAE83CC
:10169200A150E0918702AE1708953A93AA850C945F
:1016A200EF06F0E0AE1BBF0B0895A985BA85EA0FDD
:1016B200FB1FE987FA870895E985FA85EA1BFB0B88
:1016C200E987FA870895EA1BFB0B0F01DF01EB851F
:1016D200FC85AE17BF070895E985FA85E015F10587
:1016E20008950A93A22F0C94F0050A93A22FA250F8
:1016F2000E949403AE2FEE81EA170895EB85FC85D4
:10170200AE17BF070895E985FA85EA17FB07089522
:101712000A93A42F0E94F005AF81A23008950A9384
:10172200A42FAE5F0E949403AE2FEE81EA170895B4
:10173200EA93A22F0E949403AE2FEE81EA17089536
:10174200EA93A42F0E949403AE2FEE81EA17089524
:10175200E985EA93E985EA930895109639F080EDD8
:1017620097E00197F1F7A8951197C9F70895F195B8
:10177200E195F0400895EE230E2EEA2F19F0EE0FB8
:101782000A94E9F70895EE230E2EEA2F19F0E69552
:101792000A94E9F70895EE0FFF1FEE0FFF1F089559
:1017A200F595E795F595E7950895FA9FF02DEB9F4E
:1017B200F00DEA9FE02DF10D0895ED91FC91119746
:1017C2000895E199FECFFF93FFB7F894AEBBBFBB7C
:1017D200E09AEDB3FFBFFF910895E19B02C0A89587
:1017E200FCCF9FB7F894AEBBBFBBE09A8DB3E817AE
:1017F20019F0EDBBE29AE19A9FBF089500240A1600
:101802000B0608955A934A933A932A931A930A938A
:1018120008955D814C813B812A8119810881089557
:00000001FF
