:060000000C943D000C947D
:1000060000000C9400000C9400000C9400000C946A
:1000160000000C9400000C946D000C9400000C94ED
:1000260000000C9400000C9400000C9400000C944A
:1000360000000C9400000C9400000C9400000C943A
:1000460000000C9400000C9400000C9400000000CA
:10005600536164726161486569646172690080C058
:100066000E006002560001000500540002006E02F8
:1000760064000000F894EE27ECBBF1E0FBBFEBBF99
:10008600E5BFF8E1F1BDE1BD8DE0A2E0BB27ED9350
:100096008A95E9F780E098E0A0E6ED930197E9F705
:1000A600E6E6F0E085919591009761F0A591B5910E
:1000B60005901590BF01F00105900D920197E1F7AB
:1000C600FB01F0CFEFE5EDBFE8E0EEBFC0E6D2E022
:1000D6000C948E000A921A92FA926A937A938A93F1
:1000E6009A93AA93BA93EA93FA93EFB7EA9353943F
:1000F600E0E2E51509F45524C6D0E991EFBFF99180
:10010600E991B991A9919991899179916991F9901A
:100116001990099018952A97E0E2EE83E0E0EF83C4
:10012600E0E1E887E0E0E9872DE030E040EF5FEFCF
:10013600EABBEBBBE7BBE8BBEFEFE4BBE0E0E5BB4C
:10014600EFEFE1BBE0E0E2BBE3BFE2BFECBFEFBD38
:10015600ECE0EEBDE0E0EDBDECBDE7BDE6BDEAE7F7
:10016600EBBDE2E1EABDE0E0E9BDE8BDE2BDE5BD2B
:10017600E4BDE3BDE0E1E9BFE0E0E5BFE4BFEAB925
:10018600E0E8E8B9E0E0E0BFE6B9EDB9E6BFA0E136
:100196009CD07894E0E0EC83ED83AC81BD81A2171E
:1001A600B30714F00C941501E52DF0E0AFE0B0E0D4
:1001B6000E94AC01EA1BFB0BAC81BD81EA1BFB0B69
:1001C600EA83FB83E0E0E883E983AB81AA232AF490
:1001D600AA81BB814A175B070CF008C0E885F98540
:1001E6009DD0E1E0F0E0E883F98308C0AA81BB81F5
:1001F600A417B5071CF4EE81FF8190D0EA81EA933B
:10020600A98134D0F9013197AC81BD81EA1BFB0B82
:10021600E00FF11FA08145D0EC81FD813196EC8382
:10022600FD83BBCFA2E381D0B5CFFFCFAA93E5B3C1
:10023600EF70AE2FE881E07FEA2BE5BB85E08A957B
:10024600F1F7AA9A8DE08A95F1F7AA988DE08A953A
:10025600F1F762C0AA93A881E9DFE881E295E88315
:10026600A881E4DF85E88A95F1F756C0AA93E8816C
:10027600F0E0E259FD4FE081A981AE0FEBDF498046
:10028600788022960895A2E0E5DFA3E04ED0ACE0A8
:10029600E1DFA1E0DFDFA3E048D0E0E07E2E4E2ED6
:1002A6000895AA93A881AA3011F0461440F0E0E020
:1002B600EA937394A72DDADFA881AA3069F14394F3
:1002C600A89AA881C7DFA89827C0AA93E4B3E06FCD
:1002D600E4BBA29AA09AA19AAA98A898A99868801D
:1002E600E881E058E0937002E881E054E0937102FF
:1002F600A4E11BD01DD01CD01BD0A0E297DF88EC58
:1003060090E00197F1F7A8E2A5DFA4E0A3DFA5E856
:10031600A1DFA6E09FDFB7DF21960895AA81BB8102
:10032600EA0FFB1FEA83FB830895B0E00C94A20159
:10033600A0E37CDF88EC90E00197F1F70895109632
:1003460039F080ED97E00197F1F7A8951197C9F775
:1003560008951B2EBF2FF12D1A2EAE2FE12D0895D5
:00000001FF
