:100000000C9450000C9400000C9400000C94000020
:100010000C9400000C9400000C9400000C94000060
:100020000C9400000C9400000C9400000C94000050
:100030000C9400000C9400000C9400000C94000040
:100040000C9400000C9400000C9400000C94000030
:100050000C9400001027E80364000A00010000105F
:1000600000011000010054494D453E200044415418
:10007000453E20003230000080C001002D4E414E30
:1000800000494E4600000700600266000700670254
:100090006D0002007802780001007E027A00000004
:1000A000F894EE27ECBBF1E0FBBFEBBFE5BFF8E156
:1000B000F1BDE1BD8DE0A2E0BB27ED938A95E9F7A4
:1000C00080E098E0A0E6ED930197E9F7E6E8F0E03C
:1000D00085919591009761F0A591B5910590159046
:1000E000BF01F00105900D920197E1F7FB01F0CF00
:1000F000EFE5EDBFE8E0EEBFC0E6D2E00C94800093
:10010000E0E0EABBEBBBE7BBE8BBE4BBE5BBE1BBC4
:10011000E2BBE3BFE2BFECBFEFBDEEBDEDBDECBDAA
:10012000E7BDE6BDEBBDEABDE9BDE8BDE2BDE5BDAD
:10013000E4BDE3BDE9BFE5BFE4BFEAB9E0E8E8B983
:10014000E0E0E0BFE6B9EDB9E6BF0E94A502E0E05D
:10015000EA93EA93A0E08ED0A4E151D107D1A0E6C2
:10016000B2E02BD1E0E0EA93A1E0F1D0A7E6B2E063
:1001700024D1E5E0F0E0FA93EA93E4E0F0E0FA93CA
:10018000EA93A7E0B0E08FD0E6E0F0E0FA93EA93DC
:10019000E9E0F0E0FA93EA93E8E0F0E0FA93EA931A
:1001A000ABE0B0E099D0E6E0EA93A0E0D0D0E52D56
:1001B0000E946902D6010E942E02D6010E946D02A1
:1001C000E42D0E946902A0916E02B0916F020E941C
:1001D0002E02A0916E02B0916F020E946D02E72D77
:1001E0000E946902A0917002B09171020E942E02D9
:1001F000A0917002B0917102E0D0E6E0EA93A1E034
:10020000A6D0E92D0E946902A0917202B0917302FA
:100210000E942E02A0917202B09173020E946D02A0
:10022000E82D0E946902A0917402B09175020E94AB
:100230002E02A0917402B09175020E946D02A4E793
:10024000B0E0CAD0EB2D0E946902A0917602B09175
:1002500077020E942E02A0917602B0917702ADD073
:10026000E0E0EA93A2E073D0A8EEB3E00E94F602C9
:1002700075CFFFCFAA93EA81E370EA83E981E0308A
:1002800019F0EA81E061EA83E881E03019F0EA815F
:10029000E068EA830E947302A7E00E94DE02AA815E
:1002A0000E947802AAC0BA93AA930E947302A0E0A7
:1002B0000E9478020E947C020E9484020E948B02AB
:1002C0000E949102AE2F0E945C02AC81BD81EC9332
:1002D0000E94B90226960895BA93AA930E947302C7
:1002E000A3E00E9478020E947C02AE81BF81EC9361
:1002F0000E948B02AC81BD81EC930E948B020E9414
:1003000091020E9484020E94B90228960895AA933D
:10031000EBB3EF70AE2FE881E07FEA2BEBBB85E01B
:100320008A95F1F7DA9A8DE08A95F1F7DA988DE0FF
:100330008A95F1F791C0AA93A881E9DFE881E29557
:10034000E883A881E4DF85E88A95F1F785C0AA9360
:10035000E881F0E0E858FD4FE081A981AE0FEBDFC6
:10036000A980E881E0937C0222960895A2E00E9491
:100370009702ACE0E0DFA1E00E949702E0E0E093AA
:100380007C02AE2E0895AA93A881AA3021F0E091B4
:100390007D02AE1660F0E0E0EA93A0917C02AF5FD0
:1003A000A0937C02D4DFA881AA3009F455C0A3949D
:1003B000D89AA881C0DFD8984FC0BA93AA931A934D
:1003C000A981BA81ED91A983BA831E2FE03019F07B
:1003D000A12FD9DFF5CF10C0BA93AA931A93E98160
:1003E000FA813196E983FA833197E4911E2FE03048
:1003F00019F0A12FC8DFF3CF188123960895AA938F
:10040000EAB3E06FEABBD29AD09AD19ADA98D89838
:10041000D998E881E0937D02E058E0937A02E88180
:10042000E054E0937B02A4E1B0E00E94F6020E9457
:100430009D020E949D020E949D02A0E268DF88EC5E
:1004400090E00197F1F7A8E276DFA4E074DFA5E879
:1004500072DFA6E070DF8ADF21960895BA93AA932F
:10046000A991B991E991F99130962AF4E095F09526
:1004700031966DE26D93E89480E197E20DD088EEBD
:1004800093E00AD084E6992707D08AE005D06E2F42
:1004900010D066276C9308956627E817F90720F0B7
:1004A0006395E81BF90BC9F7662311F416F008955C
:1004B0006894605D6D930895AA93E881E295EF706A
:1004C000AE2FAA0FAA0FEA0FEE0FA991AF70EA0F95
:1004D0000895F0E0FA93EA9308950E94DD01ABE6F7
:1004E000B0E00C94EC010E94AA02A0ED0C94DE0294
:1004F0000E94DE020C94B9020E94AA02A1ED0E94A1
:10050000DE02A1E00C94C302AE2F0E945C02A8811F
:10051000B981EC930895A1E00E94C302AE2F0C9420
:100520005C02AA81BB81EC93A0E00C94C3020E9400
:100530009B01A3E0B0E00C94F602A0E30E948701C7
:1005400088EC90E00197F1F70895A898A998A09AEF
:10055000A19815C0A198A098EE270000999B089536
:10056000989B089504D0A19A02D0A09AE1E06DE092
:1005700007C0A19AA09A03D0A098F9DFA1986BE1D7
:100580006A95F1F7089578E0A098F1DF989BFECF87
:10059000EEDF889499990894A09AF1DFEE1F7A957E
:1005A00099F77A2F772311F4A19801C0A19ADFDF80
:1005B000A098E5DFA09ADBDFA198D9CF78E0AA0F59
:1005C00010F4A19801C0A19ADADFA098D0DF989B1F
:1005D000FECFCDDFA09A7A9591F7A198C8DFA098B9
:1005E000CEDFE1E09999EE27A09AC1CF109639F0BD
:1005F00080ED97E00197F1F7A8951197C9F7089555
:00000001FF
