:020000000C945E
:100002004E000C9400000C9400000C9400000C9420
:1000120000000C9400000C9400000C9400000C945E
:1000220000000C9400000C9400000C9400000C944E
:1000320000000C9400000C9400000C9400000C943E
:1000420000000C9400000C9400000C9400000C942E
:10005200000000004B455950414420414E44204C81
:1000620043440050524F4A454354000080C00100AF
:100072002D4E414E00494E4600000200060054003B
:100082000F006002560008006F026500020088023D
:100092006E0001008C0270000000F894EE27ECBBA9
:1000A200F1E0FBBFEBBFE5BFF8E1F1BDE1BD8DE0E3
:1000B200A2E0BB27ED938A95E9F780E098E0A0E6FD
:1000C200ED930197E9F7ECE7F0E0859195910097C0
:1000D20061F0A591B59105901590BF01F0010590D1
:1000E2000D920197E1F7FB01F0CFEFE5EDBFE8E0FC
:1000F200EEBFC0E6D2E00C947E00EFEFE4BBEFE08F
:10010200E1BBE0E0E5BBA0E186D153D1E1E0EA93B7
:10011200A0E042D1A0E6B2E06DD1E5E0EA93A1E031
:100122003BD1AFE6B2E066D1A0EDB7E00E94D603C4
:1001320040D1BDD01E2F1F3F09F4B7C0B8D0EF3F4A
:10014200E9F7A4E1B0E00E94D603E12FF0E0EA3043
:10015200A0E0FA0731F4A5E238D1E5E20E945C039F
:10016200A4C0EB30A0E0FA0731F4AAE22ED1EAE211
:100172000E945C039AC0ED30A0E0FA0731F4ADE2D0
:1001820024D1EDE20E945C0390C0EC30A0E0FA07BB
:1001920031F4ABE21AD1EBE20E945C0386C0EE308E
:1001A200A0E0FA07E9F5EBE2E51529F40E94610304
:1001B2000E94860417C0EDE2E51529F40E9461034E
:1001C2000E9472030FC0E5E2E51529F40E94610363
:1001D2000E94240507C0EAE2E51561F40E9461036A
:1001E2000E94D604E0938402F09385026093860213
:1001F20070938702ADE3E9D0E0918402F091850229
:1002020060918602709187020E94BA05E2E0EA9349
:10021200A7E7B2E00E943A02A7E7B2E0EBD045C0FE
:10022200EF30A0E0FA07D1F466247724E0E0E0930F
:100232007C02E0937D02E0937E02E0937F02E0E89D
:10024200F2E00E947703E4E8F2E00E94770355248B
:10025200B0D0E0E0EA93A0E09FD027C0A12FA05D3C
:10026200B4D00E947E03FF93EF93DF010E949B05AF
:10027200A0E0B0E080E291E40E94D604AF91BF9189
:100282000E94A1050E947E03FF93EF93DF010E946B
:100292009B05DF01CB01E12FF0E00E9486030E9463
:1002A2008604AF91BF910E94A10543CFFFCF1A935D
:1002B2001FEF909A91980E948B03849B02C017E0D3
:1002C2000AC0859B02C018E006C0869B02C019E0E6
:1002D20002C087991AE09098919A0E948B03849B9E
:1002E20002C014E00AC0859B02C015E006C0869BCE
:1002F20002C016E002C087991BE090989198929AEA
:100302009398A5E0B0E00E94D603849B02C011E05E
:100312000AC0859B02C012E006C0869B02C013E0A1
:1003220002C087991DE0909891989298939AA5E0BF
:10033200B0E00E94D603849B02C01FE00AC0859BE6
:1003420002C010E006C0869B02C01EE002C0879970
:100352001CE0E12F19910895AA93E5B3EF70AE2F37
:10036200E881E07FEA2BE5BB8DE08A95F1F7AA9A56
:100372008DE08A95F1F7AA988DE08A95F1F777C01A
:10038200AA93A881E9DFE881E295E883A881E4DF06
:1003920085E88A95F1F76BC0AA93E881F0E0E85707
:1003A200FD4FE081A981AE0FEBDF49809880229654
:1003B2000895A2E00E949103ACE0E2DFA1E00E9476
:1003C2009103E0E09E2E4E2E0895AA93A881AA30B2
:1003D20011F0481448F0E0E0EA939394A92DDCDF91
:1003E200A881AA3009F443C04394A89AA881C8DF1F
:1003F200A8983DC0BA93AA931A93A981BA81ED91A4
:10040200A983BA831E2FE03019F0A12FDEDFF5CFCA
:10041200188123960895AA93E4B3E06FE4BBA29AED
:10042200A09AA19AAA98A898A9988880E881E058E9
:10043200E0938A02E881E054E0938B02A4E1B0E009
:100442000E94D6030E9497030E9497030E9497037B
:10045200A0E282DF88EC90E00197F1F7A8E290DF5A
:10046200A4E08EDFA5E88CDFA6E08ADFA2DF21967A
:100472000895BA93AA932497E0E0E883E983EA8394
:10048200EFE3EB831A930A93EB85FC85EF3FAFEF23
:10049200FA0739F40E949F03A2E7B0E00E944F03DB
:1004A200B1C0EF3FAFE7FA0739F40E949F03A3E719
:1004B200B0E00E944F03A6C0AC85AA2362F4E9858E
:1004C200FA856B857C850E94E0030E94A4030E944A
:1004D200A903EDE2EC93A885A73010F0E6E0E887E7
:1004E2001885E12F1150E03039F00E94B0030E94CC
:1004F200B5030E94BC03F5CF0E94C1030E9486048B
:100502000E94A40310E0E0E0F0E060E87FE30E94D4
:10051200BC030E94C1030E94690588F00E94B003D7
:100522000E94CA030E94BC031F5F173238F00E9468
:100532009F03A7E7B0E00E944F0364C0EACF1030E8
:1005420029F40E94A903E0E3EC932FC0E12F11509C
:10055200E03059F10E94B0030E94B503A0E0B0E080
:1005620080E09FE30E948604DF01CB010E943803F2
:100572000E94BC030E94C1030E9424050E9413042E
:100582000E2F0E94A903E02FE05DEC93E02FF0E034
:100592000E94B0030E9486030E94D6040E94D103E7
:1005A2000E9472030E94A403D1CFE885E03031F1AA
:1005B2000E94A903EEE2EC93E885E150E887EF5F41
:1005C200E9F00E94D1030E94CA030E94A403E985B4
:1005D200FA856B857C850E9413040E2F0E94A90365
:1005E200E02FE05DEC93E02FF0E00E94D1030E9447
:1005F20086030E9472030E94A403DECFAE81BF81F4
:10060200E0E0EC93198108812D9608950E94BF05C0
:100612007B816A81F981E88177FB770F67FD7160E1
:10062200972F9E5781F078F0983190F4AA27BB2734
:10063200882708948795B795A7959A95D1F7EA23C5
:10064200FB23682305C0E8947727EE27FF27662758
:100652006F77769508F4606877F9A991B9918991D5
:100662009991EA17FB076807790797FB08950E949B
:10067200BF050E94AB050E9407030E94B00519F452
:100682000E94A60509C0E6F70E94A605A0E0B0E018
:1006920080E89FE30E947F0424960895BA93AA9368
:1006A200E991F991A991B991CD0105900D9200209E
:1006B200E1F7FC0108955E2EF30131963F010895A2
:1006C200E0918002F0918102609182027091830236
:1006D200A0917C02B0917D0280917E0290917F0276
:1006E20008950E94C4050E947F040895A0E0B0E02E
:1006F20080E090E00E94B5050895F301ACE7B2E016
:100702000E949105EA0FFB1F08950E9496050E9420
:100712004C04089592989398A5E0B0E00C94D60307
:100722000E94C101A3E0B0E00C94D603A0E30E94B2
:10073200AD0188EC90E00197F1F70895EE81FF8119
:10074200FA93EA930895E987FA876B877C8708957D
:10075200AE81BF811196AE83BF8311970895AA819E
:10076200BB818C819D810895EDECFCEC6CEC7DE30A
:100772000E94D6040895EA83FB836C837D830895E7
:10078200EA81FB816C817D81A985BA858B859C85F7
:100792000895E0E0F0E060E271E40E94D60408957A
:1007A200A985BA858B859C850895109639F0A89500
:1007B20080ED97E00197F1F71197C9F70895309707
:1007C2006040704009F070580895552342F4503843
:1007D20011F4E0FF04C03196691F791F6BF050E8F5
:1007E200572711F45F93CFC05F3F31F0660F000CC3
:1007F20057956795752F08955F9300200AF0CFC033
:10080200C8C050E8192E1522880F991F9527550F39
:10081200879550E8072E0522660F771F7527550F1B
:1008220067950895689401C0E8945F93F2DF703889
:1008320018F07F3F08F4A7C056E1571BAAF4519560
:1008420058300EF4593030F0EFEFFFEF6FEF7FE7E3
:1008520077F91AC077275523B9F0EE0FFF1F661FED
:10086200771F5A95D1F710C07727583028F0EF2F0D
:10087200F62F672F5850F9CF552331F076956795AB
:10088200F795E7955A95D1F700200AF441D15F9187
:100892000895689401C0E894309760407040B1F0C8
:1008A200002426F0772312F4009432D1172E7EE131
:1008B200112032F07A95EE0FFF1F661F111CF9CF3F
:1008C200EF2FF62F612D5F938ADF5F9108954F938B
:1008D200AF01FD01DA01AB01BC01CA01402D012CBF
:1008E200142E4F910895EA0FFB1F681F0895E0959B
:1008F200F0956095EF5FFF4F6F4F08955F9381DF33
:10090200903871F150E8152604C05F937ADF903871
:1009120039F1703821F1572F591B2BF112F4D7DF1F
:10092200FACF583118F0AA27BB278827583028F069
:10093200AB2FB82F88275850F9CF552329F0869529
:10094200B795A7955A95D9F7502D512572F0CBDF5F
:1009520038F46795F795E795739513F420C0B7DFE0
:100962003EDF5F910895D8F7FBCFEA1BFB0B680BC4
:1009720051F010F40094BBDF662392F3EE0FFF1FD9
:10098200661F7A95CBF7EE27FF27662777275F91B9
:100992000895EFEFFFEF6FE77FEF5F910895EFEFBD
:1009A200FFEF6FE77FE75F9108955F932ADF70386B
:1009B20051F3903841F301240894791F23F41CF376
:1009C20000203AF3ECCF0F921F932F933F934F9354
:1009D200112722279927689FA0018F9F302D410D53
:1009E200591F6B9F300D411D591F8E9F27D0BF9FEE
:1009F20025D06A9F23D0BE9F1DD0AF9F1BD0AE9F34
:100A0200110D291F391F491F591FE32FF42F652F7D
:100A1200522F4F913F912F911F910F9066232AF0F1
:100A2200550FEE1FFF1F661F02C073954BF2CDDEFE
:100A32005F910895100D211D391F02C0200D311D37
:100A4200491F591F08955F93DCDE703821F411208D
:100A52000AF49FCFA4CF903809F495CF01240894CB
:100A6200970B1BF4D4F30020F3CF792F1F932F930E
:100A72003F934F93112411272227332744275527C9
:100A820090E2AE17BF078607410730F0AE1BBF0BDF
:100A9200860B410B089401C08894551F221F331FF7
:100AA200111CAA1FBB1F881F441F9A9551F7F901F9
:100AB200612D4F913F912F911F91662332F0550F77
:100AC200EE1FFF1F661F7A9543F27FDE5F91089546
:100AD20099239AF0772342F0971748F029F4AE173A
:100AE200BF07860720F031F098948894089598946F
:100AF200089408951894889408957723C2F7971755
:100B020098F3A9F7EA17FB07680788F399F3ECCF84
:100B1200F09560957095E195FF4F6F4F7F4F089567
:100B2200EE0FFF1FEE0FFF1F08956F2F660F660B6C
:100B3200762F0895ED91FD916D917C911397089513
:100B4200ED93FD936D937C930895E881F9816A8119
:100B52007B810895A881B9818A819B810895E88368
:100B6200F9836A837B830895A083B183828393830D
:100B720008957A936A93FA93EA9308959A938A93DB
:100B8200BA93AA930895182E862F612D192E972FA6
:100B9200712D1B2EBF2FF12D1A2EAE2FE12D089590
:00000001FF
