:080000000C944E000C9400006A
:100008000C9400000C9400000C9400000C94000068
:100018000C9400000C9400000C9400000C94000058
:100028000C9400000C9400000C9400000C94000048
:100038000C9400000C9400000C9400000C94000038
:100048000C9400000C9400000C94000000004B4538
:100058005950414420414E44204C43440050524F93
:100068004A454354000080C001002D4E414E0049CE
:100078004E4600000F006002560008006F0265003F
:10008800020006005400020088026E0001008C0283
:1000980070000000F894EE27ECBBF1E0FBBFEBBF6B
:1000A800E5BFF8E1F1BDE1BD8DE0A2E0BB27ED932E
:1000B8008A95E9F780E098E0A0E6ED930197E9F7E3
:1000C800ECE7F0E085919591009761F0A591B591E5
:1000D80005901590BF01F00105900D920197E1F789
:1000E800FB01F0CFEFE5EDBFE8E0EEBFC0E6D2E000
:1000F8000C947E00EFEFE4BBEFE0E1BBE0E0E5BB92
:10010800A0E173D140D1E1E0EA93A0E02FD1A0E6CD
:10011800B2E05AD1E5E0EA93A1E028D1AFE6B2E037
:1001280053D1A0EDB7E00E94C9032DD1AED01E2F48
:100138001F3F11F40C944701A8D0EF3FE9F70E9444
:1001480041031A3031F4A5E22AD1E5E20E944503C1
:100158009AC01B3031F4AAE222D1EAE20E94450398
:1001680092C01D3031F4ADE21AD1EDE20E94450390
:100178008AC01C3031F4ABE212D1EBE20E94450395
:1001880082C01E30E9F5EBE2E51529F40E944A0326
:100198000E94790417C0EDE2E51529F40E944A038C
:1001A8000E945B030FC0E5E2E51529F40E944A03AB
:1001B8000E94170507C0EAE2E51561F40E944A03A8
:1001C8000E94C904E0938402F0938502609386023A
:1001D80070938702ADE3E3D0E0918402F091850249
:1001E80060918602709187020E94AD05E2E0EA9371
:1001F800A7E7B2E00E942502A7E7B2E0E5D043C036
:100208001F30D1F466247724E0E0E0937C02E09389
:100218007D02E0937E02E0937F02E0E8F2E00E9434
:100228006003E4E8F2E00E9460035524ACD0E0E00B
:10023800EA93A0E09BD027C0A12FA05DB0D00E9478
:100248006703FF93EF93DF010E948E05A0E0B0E003
:1002580080E291E40E94C904AF91BF910E94940585
:100268000E946703FF93EF93DF010E948E05DF0171
:10027800CB01E12FF0E00E946F030E947904AF9157
:10028800BF910E94940552CFFFCF1A931FEF909A07
:1002980091980E947403849B02C017E00AC0859B52
:1002A80002C018E006C0869B02C019E002C0879908
:1002B8001AE09098919A0E947403849B02C014E0FB
:1002C8000AC0859B02C015E006C0869B02C016E0E6
:1002D80002C087991BE090989198929A93980E94EF
:1002E8007A03849B02C011E00AC0859B02C012E019
:1002F80006C0869B02C013E002C087991DE0909853
:1003080091989298939A0E947A03849B02C01FE066
:100318000AC0859B02C010E006C0869B02C01EE092
:1003280002C087991CE0E12F19910895AA93E5B3BB
:10033800EF70AE2FE881E07FEA2BE5BB85E08A9578
:10034800F1F7AA9A8DE08A95F1F7AA988DE08A9537
:10035800F1F775C0AA93A881E9DFE881E295E883FF
:10036800A881E4DF85E88A95F1F769C0AA93E88156
:10037800F0E0E857FD4FE081A981AE0FEBDF49803F
:10038800988022960895A2E00E947E03ACE0E2DF06
:10039800A1E00E947E03E0E09E2E4E2E0895AA93CF
:1003A800A881AA3011F0481448F0E0E0EA93939449
:1003B800A92DDCDFA881AA3009F441C04394A89A8A
:1003C800A881C8DFA8983BC0BA93AA931A93A981B9
:1003D800BA81ED91A983BA831E2FE03019F0A12FBD
:1003E800DEDFF5CF188123960895AA93E4B3E06F72
:1003F800E4BBA29AA09AA19AAA98A898A9988880DA
:10040800E881E058E0938A02E881E054E0938B02A7
:100418000E9441030E9484030E9484030E94840373
:10042800A0E284DF88EC90E00197F1F7A8E292DF80
:10043800A4E090DFA5E88EDFA6E08CDFA4DF21969C
:100448000895BA93AA932497E0E0E883E983EA83BE
:10045800EFE3EB831A930A93EB85FC85EF3FAFEF4D
:10046800FA0739F40E948C03A2E7B0E00E94340333
:10047800ABC0EF3FAFE7FA0739F40E948C03A3E75C
:10048800B0E00E943403A0C0AC85AA2362F4E985D9
:10049800FA856B857C850E94D3030E9491030E9494
:1004A8009603EDE2EC93A885A73010F0E6E0E88724
:1004B8001885E12F1150E03039F00E949D030E9409
:1004C800A2030E94A903F5CF0E94AE030E947904FB
:1004D8000E94910310E0E0E0F0E060E87FE30E9412
:1004E800A9030E94AE030E945C0588F00E949D0348
:1004F8000E94B7030E94A9031F5F173238F00E94B9
:100508008C03A7E7B0E00E9434035EC0EACF103046
:1005180029F40E949603E0E3EC932CC0E12F1150DC
:10052800E03041F10E949D030E94A203A0E0B0E0E8
:1005380080E09FE30E947904DF01CB010E941D0344
:100548000E94A9030E94AE030E9417050E94060498
:100558000E2F0E9496030E94BE030E949D030E94D4
:100568006F030E94C9040E94C4030E945B030E9497
:100578009103D4CFE885E03019F10E949603EEE2AA
:10058800EC93E885E150E887EF5FD1F00E94C4035F
:100598000E94B7030E949103E985FA856B857C85E3
:1005A8000E9406040E2F0E9496030E94BE030E941A
:1005B800C4030E946F030E945B030E949103E1CF72
:1005C800AE81BF81E0E0EC93198108812D960895F2
:1005D8000E94B2057B816A81F981E88177FB770FF8
:1005E80067FD7160972F9E5781F078F0983190F4ED
:1005F800AA27BB27882708948795B795A7959A9522
:10060800D1F7EA23FB23682305C0E8947727EE2770
:10061800FF2766276F77769508F4606877F9A991C0
:10062800B99189919991EA17FB076807790797FBB0
:1006380008950E94B2050E949E050E94EC020E9445
:10064800A30519F40E94990509C0E6F70E949905C7
:10065800A0E0B0E080E89FE30E9472042496089529
:10066800BA93AA93E991F991A991B991CD0105900D
:100678000D920020E1F7FC010895A4E1B0E00C948C
:10068800C9035E2EF30131963F010895E09180027F
:10069800F09181026091820270918302A0917C02A4
:1006A800B0917D0280917E0290917F0208950E9410
:1006B800B7050E9472040895A0E0B0E080E090E0E1
:1006C8000E94A8050895F301ACE7B2E00E948405F2
:1006D800EA0FFB1F08950E9489050E943F040895B0
:1006E80092989398A5E0B0E00C94C903A5E0B0E017
:1006F8000C94C9030E94AE01A3E0B0E00C94C903B6
:10070800A0E30E949A0188EC90E00197F1F7089520
:10071800EE81FF81FA93EA930895E987FA876B8758
:100728007C870895AE81BF811196AE83BF831197F0
:100738000895AA81BB818C819D810895EDECFCEC24
:100748006CEC7DE30E94C9040895EA83FB836C8303
:100758007D830895EA81FB816C817D81A985BA85B5
:100768008B859C850895E0E0F0E060E271E40E94EA
:10077800C9040895E02FE05DEC93E02FF0E00895C0
:10078800A985BA858B859C850895109639F080EDEA
:1007980097E00197F1F7A8951197C9F70895309751
:1007A8006040704009F070580895552342F450385D
:1007B80011F4E0FF04C03196691F791F6BF050E80F
:1007C800572711F45F93CFC05F3F31F0660F000CDD
:1007D80057956795752F08955F9300200AF0CFC04D
:1007E800C8C050E8192E1522880F991F9527550F54
:1007F800879550E8072E0522660F771F7527550F36
:1008080067950895689401C0E8945F93F2DF7038A3
:1008180018F07F3F08F4A7C056E1571BAAF451957A
:1008280058300EF4593030F0EFEFFFEF6FEF7FE7FD
:1008380077F91AC077275523B9F0EE0FFF1F661F07
:10084800771F5A95D1F710C07727583028F0EF2F27
:10085800F62F672F5850F9CF552331F076956795C5
:10086800F795E7955A95D1F700200AF441D15F91A1
:100878000895689401C0E894309760407040B1F0E2
:10088800002426F0772312F4009432D1172E7EE14B
:10089800112032F07A95EE0FFF1F661F111CF9CF59
:1008A800EF2FF62F612D5F938ADF5F9108954F93A5
:1008B800AF01FD01DA01AB01BC01CA01402D012CD9
:1008C800142E4F910895EA0FFB1F681F0895E095B5
:1008D800F0956095EF5FFF4F6F4F08955F9381DF4D
:1008E800903871F150E8152604C05F937ADF90388C
:1008F80039F1703821F1572F591B2BF112F4D7DF3A
:10090800FACF583118F0AA27BB278827583028F083
:10091800AB2FB82F88275850F9CF552329F0869543
:10092800B795A7955A95D9F7502D512572F0CBDF79
:1009380038F46795F795E795739513F420C0B7DFFA
:100948003EDF5F910895D8F7FBCFEA1BFB0B680BDE
:1009580051F010F40094BBDF662392F3EE0FFF1FF3
:10096800661F7A95CBF7EE27FF27662777275F91D3
:100978000895EFEFFFEF6FE77FEF5F910895EFEFD7
:10098800FFEF6FE77FE75F9108955F932ADF703885
:1009980051F3903841F301240894791F23F41CF390
:1009A80000203AF3ECCF0F921F932F933F934F936E
:1009B800112722279927689FA0018F9F302D410D6D
:1009C800591F6B9F300D411D591F8E9F27D0BF9F08
:1009D80025D06A9F23D0BE9F1DD0AF9F1BD0AE9F4E
:1009E800110D291F391F491F591FE32FF42F652F98
:1009F800522F4F913F912F911F910F9066232AF00C
:100A0800550FEE1FFF1F661F02C073954BF2CDDE18
:100A18005F910895100D211D391F02C0200D311D51
:100A2800491F591F08955F93DCDE703821F41120A7
:100A38000AF49FCFA4CF903809F495CF01240894E5
:100A4800970B1BF4D4F30020F3CF792F1F932F9328
:100A58003F934F93112411272227332744275527E3
:100A680090E2AE17BF078607410730F0AE1BBF0BF9
:100A7800860B410B089401C08894551F221F331F11
:100A8800111CAA1FBB1F881F441F9A9551F7F90113
:100A9800612D4F913F912F911F91662332F0550F91
:100AA800EE1FFF1F661F7A9543F27FDE5F91089560
:100AB80099239AF0772342F0971748F029F4AE1754
:100AC800BF07860720F031F0989488940895989489
:100AD800089408951894889408957723C2F797176F
:100AE80098F3A9F7EA17FB07680788F399F3ECCF9F
:100AF800F09560957095E195FF4F6F4F7F4F089582
:100B0800EE0FFF1FEE0FFF1F08956F2F660F660B86
:100B1800762F0895ED91FD916D917C91139708952D
:100B2800ED93FD936D937C930895E881F9816A8133
:100B38007B810895A881B9818A819B810895E88382
:100B4800F9836A837B830895A083B1838283938327
:100B580008957A936A93FA93EA9308959A938A93F5
:100B6800BA93AA930895182E862F612D192E972FC0
:100B7800712D1B2EBF2FF12D1A2EAE2FE12D0895AA
:00000001FF
