:100000000C9449000C9400000C9400000C94000027
:100010000C9400000C9400000C9400000C94000060
:100020000C9400000C9400000C9400000C94000050
:100030000C9400000C9400000C9400000C94000040
:100040000C9400000C9400000C9400000C94000030
:100050000C9400001027E80364000A00010000105F
:1000600000011000010042616861726568204B6107
:10007000766F757369206E656A61640080C01600D2
:100080006002660016007602660002008C027C00A8
:100090000000F894EE27ECBBF1E0FBBFEBBFE5BF3F
:1000A000F8E1F1BDE1BD8DE0A2E0BB27ED938A95BB
:1000B000E9F780E098E0A0E6ED930197E9F7EEE735
:1000C000F0E085919591009761F0A591B59105902B
:1000D0001590BF01F00105900D920197E1F7FB012A
:1000E000F0CFEFE5EDBFE8E0EEBFC0E6D2E00C9464
:1000F0007900E0E0EABBEBBBE7BBE8BBEFEFE4BBBA
:10010000E0E0E5BBE1BBE2BBEBB9E8E1EAB9E6E878
:10011000E0BDE0E0E0BDE3E3E9B9A0E1B2D07DD02D
:100120000E946F011E2FA12F84D0A12F0E94730166
:10013000E12FF0E0E334A0E0FA0711F46ED026C01E
:10014000EE34A0E0FA0741F40E947A01A0E6B2E0A2
:100150001FD00E947A011AC0E336A0E0FA0771F4BA
:1001600066247724E8E1F0E06E167F0634F40E94FE
:100170007A01F30131963F01F5CF08C0ED34A0E0DC
:10018000FA0721F44AD0A6E7B2E06AD0C9CFFFCF80
:10019000BA93AA935524A881B981EE27A50DBE1F55
:1001A000EC91E03051F0A881B981EE27A50DBE1F7A
:1001B000AC910E9473015394EECF2DC0AA93E5B386
:1001C000EF70AE2FE881E07FEA2BE5BB85E08A95F2
:1001D000F1F7AA9A8DE08A95F1F7AA988DE08A95B1
:1001E000F1F70C947801AA93A881E8DFE881E29501
:1001F000E883A881E3DF85E88A95F1F70C9478011C
:10020000AA93E881F0E0E457FD4FE081A981AE0FA9
:10021000EADF4980988022960895A2E00E9480013A
:10022000ACE0E1DFA1E00E948001E0E09E2E4E2ED6
:100230000895AA93A881AA3011F0481450F0E0E084
:10024000EA939394A92DDCDFA881AA3011F40C94D1
:1002500078014394A89AA881C6DFA8980C947801E5
:10026000BA93AA931A93A981BA81ED91A983BA830B
:100270001E2FE03019F0A12FDCDFF5CF1881239677
:100280000895AA93E4B3E06FE4BBA29AA09AA19A5E
:10029000AA98A898A9988880E881E058E0938E02EF
:1002A000E881E054E0938F02A4E1B0E00E948E0167
:1002B0000E9486010E9486010E948601A0E27EDFE4
:1002C00088EC90E00197F1F7A8E28DDFA4E08BDFE6
:1002D000A5E889DFA6E087DFA0DF0C9478015F9BAB
:1002E000FECFECB10895AA935D9BFECFE881ECB9F7
:1002F00021960895ADE00E947301AAE00C94730169
:100300000E94F300A3E0B0E00C948E01A0E30E94F1
:10031000DE0088EC90E00197F1F70895109639F02F
:1003200080ED97E00197F1F7A8951197C9F7089527
:00000001FF
