:080000000C943A000C9400007E
:100008000C9400000C9400000C9400000C94000068
:100018000C9400000C9400000C9400000C94000058
:100028000C9400000C9400000C9400000C94000048
:100038000C9400000C9400000C9400000C94000038
:100048000C9400000C9400000C940000FFFFFFFFCC
:1000580080B6B6B6FFFFFFFFC0DEDEC0FFFFFFF7CA
:10006800C0F5F3F7FFFFFFFF80FFFFFFF894EE27CF
:10007800ECBBF1E0FBBFEBBFE5BF8DE0A2E0BB2727
:10008800ED938A95E9F780E098E0A0E6ED93019773
:10009800E9F7EFE5EDBFE8E0EEBFC0E6D2E00C948B
:1000A8005500EFEFE7BBEABB50E05D31E8F431E023
:1000B8003B30C0F408E010E0153090F4E12FE50F74
:1000C8002E2FF0E0EC5AFF4F04900BBA08BBA4E0C7
:1000D800B0E00E947A00000FE0E0E8BB1F5FECCFC1
:1000E8003F5FE6CF5F5FE1CFDFCFFFCF109639F0FC
:1000F800A89580ED97E00197F1F71197C9F7089552
:00000001FF
