:0A0000000C943A000C9400000C94DC
:10000A0000000C9400000C9400000C9400000C9466
:10001A0000000C9467000C9400000C9400000C94EF
:10002A0000000C9400000C9400000C9400000C9446
:10003A0000000C9400000C9400000C9400000C9436
:10004A0000000C9400000C94000000004B61766FD5
:10005A007573690080C00100050054000800600241
:10006A005600020068025E000000F894EE27ECBB1E
:10007A00F1E0FBBFEBBFE5BF8DE0A2E0BB27ED934C
:10008A008A95E9F780E098E0A0E6ED930197E9F711
:10009A00E0E6F0E085919591009761F0A591B59120
:1000AA0005901590BF01F00105900D920197E1F7B7
:1000BA00FB01F0CFEFE5EDBFE8E0EEBFC0E6D2E02E
:1000CA000C948B000A921A92FA926A937A938A9300
:1000DA009A93AA93BA93EA93FA93EFB7EA9353944B
:1000EA00E52DF0E0AFE1B0E00E9483015E2EA3D0DF
:1000FA00E991EFBFF991E991B991A9919991899102
:10010A0079916991F9901990099018952297E0E0F0
:10011A00E883E9830EE010E020E030E040E050E0C0
:10012A00EABBEBBBE7BBE8BBE4BBE5BBEFEFE1BB7C
:10013A00E0E0E2BBE3BFE2BFECBFEFBDECE0EEBD47
:10014A00E0E0EDBDECBDE7BDE6BDEAE7EBBDE2E10F
:10015A00EABDE0E0E9BDE8BDE2BDE5BDE4BDE3BD61
:10016A00E0E1E9BFE0E0E5BFE4BFEAB9E0E8E8B909
:10017A00E0E0E0BFE6B9EDB9E6BFA0E17AD0789455
:10018A002297E0E6F2E0E883F98320E030E02730C6
:10019A00E0E03E07E4F4E52DF0E0E20FF31FAF01E3
:1001AA00E1E0F0E0EA83FB834031E0E05E0714F02F
:1001BA00405150404A93AB8131D0F901A881B981AD
:1001CA00AE0FBF1FAC9141D02F5F3F4FE0CFA4E6E7
:1001DA00B0E00E9475012296D3CFFFCFAA93E8B36D
:1001EA00EF70AE2FE881E07FEA2BE8BB8DE08A95BD
:1001FA00F1F7C29A8DE08A95F1F7C2988DE08A9557
:10020A00F1F760C0AA93A881E9DFE881E295E88363
:10021A00A881E4DF85E88A95F1F754C0AA93E881BA
:10022A00F0E0E859FD4FE081A981AE0FEBDF49808C
:10023A00788022960895A2E047D0ACE0E3DFA1E0FF
:10024A0043D0E0E07E2E4E2E0895AA93A881AA30CC
:10025A0011F0461440F0E0E0EA937394A72DDEDF34
:10026A00A881AA3079F14394C09AA881CBDFC098BB
:10027A0029C0AA93E7B3E06FE7BBBA9AB89AB99ACA
:10028A00C298C098C1986880E881E058E0936A02F1
:10029A00E881E054E0936B02A4E1B0E00E947501AA
:1002AA0018D017D016D0A0E299DF88EC90E0019719
:1002BA00F1F7A8E2A7DFA4E0A5DFA5E8A3DFA6E09F
:1002CA00A1DFB9DF219608959DDFA3E0B0E00C9489
:1002DA007501A0E383DF88EC90E00197F1F70895B8
:1002EA00109639F0A89580ED97E00197F1F71197EC
:1002FA00C9F70895F195E195F0400895E894F7FF5C
:10030A0002C0F8DF6894EA23FB230EF4F3DF0895B2
:00000001FF
