:060000000C943E000C947C
:1000060000000C9400000C9400000C9400000C946A
:1000160000000C9400000C946B000C9400000C94EF
:1000260000000C9400000C9400000C9400000C944A
:1000360000000C9400000C9400000C9400000C943A
:1000460000000C9400000C9400000C9400000000CA
:1000560042616861726568204B61766F75736900ED
:1000660080C0010005005400100060025600020026
:10007600700266000000F894EE27ECBBF1E0FBBFCF
:10008600EBBFE5BF8DE0A2E0BB27ED938A95E9F7CC
:1000960080E098E0A0E6ED930197E9F7E8E6F0E066
:1000A60085919591009761F0A591B5910590159070
:1000B600BF01F00105900D920197E1F7FB01F0CF2A
:1000C600EFE5EDBFE8E0EEBFC0E6D2E00C948C00B1
:1000D6000A921A92FA926A937A938A939A93AA93B5
:1000E600BA93EA93FA93EFB7EA935394E0E2E515ED
:1000F60009F45524C8D0E991EFBFF991E991B99176
:10010600A9919991899179916991F990199009909C
:1001160018952A97E0E2EE83E0E0EF83E0E1E887D6
:10012600E0E0E98700E612E02FE030E040EF5FEF25
:10013600EABBEBBBE7BBE8BBEFEFE4BBE0E0E5BB4C
:10014600EFEFE1BBE0E0E2BBE3BFE2BFECBFEFBD38
:10015600ECE0EEBDE0E0EDBDECBDE7BDE6BDEAE7F7
:10016600EBBDE2E1EABDE0E0E9BDE8BDE2BDE5BD2B
:10017600E4BDE3BDE0E1E9BFE0E0E5BFE4BFEAB925
:10018600E0E8E8B9E0E0E0BFE6B9EDB9E6BFA0E136
:1001960098D07894E0E0EC83ED83AC81BD81A21722
:1001A600B307F4F5E52DF0E0AFE0B0E00E94AC0156
:1001B600EA1BFB0BAC81BD81EA1BFB0BEA83FB83CD
:1001C600E0E0E883E983AB81AA232AF4AA81BB8114
:1001D6004A175B070CF008C0E885F9859DD0E1E079
:1001E600F0E0E883F98308C0AA81BB81A417B507AC
:1001F6001CF4EE81FF8190D0EA81EA93A98136D082
:10020600F9013197AC81BD81EA1BFB0BE00FF11FB1
:10021600A08143D0EC81FD813196EC83FD83BDCF77
:10022600A2E3B0E00E94A201B5CFFFCFAA93E5B347
:10023600EF70AE2FE881E07FEA2BE5BB8DE08A9573
:10024600F1F7AA9A8DE08A95F1F7AA988DE08A953A
:10025600F1F760C0AA93A881E9DFE881E295E88317
:10026600A881E4DF85E88A95F1F754C0AA93E8816E
:10027600F0E0E059FD4FE081A981AE0FEBDF498048
:10028600788022960895A2E04ED0ACE0E3DFA1E0AC
:100296004AD0E0E07E2E4E2E0895AA93A881AA3079
:1002A60011F0461440F0E0E0EA937394A72DDEDFE8
:1002B600A881AA3079F14394A89AA881CBDFA8989F
:1002C60029C0AA93E4B3E06FE4BBA29AA09AA19ACC
:1002D600AA98A898A9986880E881E058E0937202E5
:1002E600E881E054E0937302A4E1B0E00E94A20129
:1002F6001FD01ED01DD0A0E299DF88EC90E00197B8
:10030600F1F7A8E2A7DFA4E0A5DFA5E8A3DFA6E052
:10031600A1DFB9DF21960895AA81BB81EA0FFB1FF1
:10032600EA83FB83089596DFA3E0B0E00C94A20174
:10033600A0E37CDF88EC90E00197F1F70895109632
:1003460039F0A89580ED97E00197F1F71197C9F775
:1003560008951B2EBF2FF12D1A2EAE2FE12D0895D5
:00000001FF
