:080000000C9432000C94000086
:100008000C9400000C9400000C9400000C94000068
:100018000C9400000C9400000C9400000C94000058
:100028000C9400000C9400000C9400000C94000048
:100038000C9400000C9400000C9400000C94000038
:100048000C9400000C9400000C940000040A111198
:100058001F1111000700600254000000F894EE27F9
:10006800ECBBF1E0FBBFEBBFE5BFF8E1F1BDE1BDE3
:100078008DE0A2E0BB27ED938A95E9F780E098E050
:10008800A0E6ED930197E9F7ECE5F0E0859195910D
:10009800009761F0A591B59105901590BF01F00109
:1000A80005900D920197E1F7FB01F0CFEFE5EDBF69
:1000B800E8E0EEBFC0E6D2E00C946200EFEFE4BBEC
:1000C800E1BB0EEF10E0173078F402BB000F0160BF
:1000D800E12FF0E0E05AFD4FE081E5BBA5E0B0E09C
:1000E8000E947A001F5FEFCFECCFFFCF109639F058
:1000F80080ED97E00197F1F7A8951197C9F7089552
:00000001FF
