:080000000C943F000C94000079
:100008000C9400000C9400000C9400000C94000068
:100018000C9400000C946F000C9400000C940000E9
:100028000C9400000C9400000C9400000C94000048
:100038000C9400000C9400000C9400000C94000038
:100048000C9400000C9400000C9400000000426125
:100058006861726568204B61766F616175736900CC
:1000680080C0120060025600010005005400020022
:10007800720268000000F894EE27ECBBF1E0FBBFC9
:10008800EBBFE5BFF8E1F1BDE1BD8DE0A2E0BB2724
:10009800ED938A95E9F780E098E0A0E6ED93019763
:1000A800E9F7EAE6F0E085919591009761F0A5916E
:1000B800B59105901590BF01F00105900D9201973B
:1000C800E1F7FB01F0CFEFE5EDBFE8E0EEBFC0E6FA
:1000D800D2E00C948E000A921A92FA926A937A935A
:1000E8008A939A93AA93BA93EA93FA93EFB7EA9307
:1000F8005394EFE15E22B5D0E991EFBFF991E99110
:10010800B991A9919991899179916991F9901990E9
:100118000990189500E010E020E030E040E050E061
:10012800E0E0EABBEBBBE7BBE8BBE4BBE5BBEFEF5A
:10013800E1BBE0E0E2BBE3BFE2BFECBFEFBDECE058
:10014800EEBDE0E0EDBDECBDE7BDE6BDEAE7EBBD29
:10015800E2E1EABDE0E0E9BDE8BDE2BDE5BDE4BD40
:10016800E3BDE0E1E9BFE0E0E5BFE4BFEAB9E0E80C
:10017800E8B9E0E0E0BFE6B9EDB9E6BFA0E193D0A9
:1001880078942297E0E6F2E0E883F98300E010E053
:100198000F30E0E01E079CF5EFE0F0E0E01BF10B0C
:1001A800DF01E52DF0E0AE1BBF0B9D0140E050E004
:1001B800332322F400240416050609F004C041E0A4
:1001C80050E0205F3F4F33232AF4E1E0F0E0E417EA
:1001D800F50709F004C040E050E0205F3F4F2A9344
:1001E800A42F32D0EEE0F0E0E01BF10BA881B9813A
:1001F800AE0FBF1FAC9143D00F5F1F4FC9CFA4E60E
:100208007BD02296BECFFFCFAA93E5B3EF70AE2F77
:10021800E881E07FEA2BE5BB85E08A95F1F7AA9AA9
:100228008DE08A95F1F7AA988DE08A95F1F762C07A
:10023800AA93A881E9DFE881E295E883A881E4DF51
:1002480085E88A95F1F756C0AA93E881F0E0EE5860
:10025800FD4FE081A981AE0FEBDF498078802296BF
:100268000895A2E0E5DFA3E047D0ACE0E1DFA1E03C
:10027800DFDFA3E041D0E0E07E2E4E2E0895AA9362
:10028800A881AA3011F0461440F0E0E0EA93739494
:10029800A72DDADFA881AA3069F14394A89AA8812A
:1002A800C7DFA89827C0AA93E4B3E06FE4BBA29A7B
:1002B800A09AA19AAA98A898A9986880E881E05875
:1002C800E0937402E881E054E0937502A4E114D04D
:1002D80016D015D014D0A0E297DF88EC90E00197F3
:1002E800F1F7A8E2A5DFA4E0A3DFA5E8A1DFA6E077
:1002F8009FDFB7DF21960895B0E00C948A01A0E350
:1003080083DF88EC90E00197F1F70895109639F0B3
:1003180080ED97E00197F1F7A8951197C9F708952F
:00000001FF
