:060000000C943E000C947C
:1000060000000C9400000C9400000C9400000C946A
:1000160000000C9400000C946B000C9400000C94EF
:1000260000000C9400000C9400000C9400000C944A
:1000360000000C9400000C9400000C9400000C943A
:1000460000000C9400000C9400000C9400000000CA
:1000560042616861726568204B61766F75736900ED
:1000660080C0010005005400100060025600020026
:10007600700266000000F894EE27ECBBF1E0FBBFCF
:10008600EBBFE5BF8DE0A2E0BB27ED938A95E9F7CC
:1000960080E098E0A0E6ED930197E9F7E8E6F0E066
:1000A60085919591009761F0A591B5910590159070
:1000B600BF01F00105900D920197E1F7FB01F0CF2A
:1000C600EFE5EDBFE8E0EEBFC0E6D2E00C948F00AE
:1000D6000A921A92FA926A937A938A939A93AA93B5
:1000E600BA93EA93FA93EFB7EA935394E52DF0E0C7
:1000F600AFE1B0E00E94A9015E2EBAD0E991EFBF50
:10010600F991E991B991A991999189917991699119
:10011600F9901990099018952297E0E0E883E98311
:100126000EE010E020E030E040E050E0EABBEBBB40
:10013600E7BBE8BBE4BBE5BBEFEFE1BBE0E0E2BB5E
:10014600E3BFE2BFECBFEFBDECE0EEBDE0E0EDBD2E
:10015600ECBDE7BDE6BDEAE7EBBDE2E1EABDE0E006
:10016600E9BDE8BDE2BDE5BDE4BDE3BDE0E1E9BF53
:10017600E0E0E5BFE4BFEAB9E0E8E8B9E0E0E0BF07
:10018600E6B9EDB9E6BFA0E191D078942297E0E612
:10019600F2E0E883F98320E030E00EE010E0D901D8
:1001A600EFE0F0E00E94A301112372F11096E52D15
:1001B600F0E0EA0FFB1FAF01A4D04031E0E05E079C
:1001C60024F0AA81BB81119709F003C09AD040514F
:1001D60050404031E0E05E0724F0AA81BB811197D0
:1001E60009F003C08ED0405150404A93AB8133D0C2
:1001F600F901A881B981AE0FBF1FAC9143D02F5F23
:100206003F4F01501040CBCFA4E6B0E00E949501CD
:100216002296BCCFFFCFAA93E8B3EF70AE2FE8814A
:10022600E07FEA2BE8BB8DE08A95F1F7C29A8DE074
:100236008A95F1F7C2988DE08A95F1F760C0AA9386
:10024600A881E9DFE881E295E883A881E4DF85E813
:100256008A95F1F754C0AA93E881F0E0E059FD4F82
:10026600E081A981AE0FEBDF498078802296089560
:10027600A2E04CD0ACE0E3DFA1E048D0E0E07E2E87
:100286004E2E0895AA93A881AA3011F0461440F084
:10029600E0E0EA937394A72DDEDFA881AA3079F116
:1002A6004394C09AA881CBDFC09829C0AA93E7B32C
:1002B600E06FE7BBBA9AB89AB99AC298C098C19843
:1002C6006880E881E058E0937202E881E054E093A8
:1002D6007302A4E1B0E00E9495011DD01CD01BD092
:1002E600A0E299DF88EC90E00197F1F7A8E2A7DF9A
:1002F600A4E0A5DFA5E8A3DFA6E0A1DFB9DF21968C
:100306000895E1E0F0E0EA83FB83089598DFA3E037
:10031600B0E00C949501A0E37EDF88EC90E00197B5
:10032600F1F70895109639F0A89580ED97E00197BA
:10033600F1F71197C9F70895F195E195F040089501
:10034600AE17BF07E1E00CF0EE270895E894F7FF3B
:1003560002C0F2DF6894EA23FB230EF4EDDF089572
:00000001FF
