:040000000C9441001B
:100004000C9400000C9400000C9400000C9400006C
:100014000C9400000C9400000C9400000C9400005C
:100024000C9400000C9400000C9400000C9400004C
:100034000C9400000C9400000C9400000C9400003C
:100044000C9400000C9400000C9400000C9400002C
:1000540054454D50455241545552450001002D4ED2
:10006400414E00494E46000080C00C00600254001E
:10007400010071026000020075026C000000F89437
:10008400EE27ECBBF1E0FBBFEBBFE5BFF8E1F1BD50
:10009400E1BD8DE0A2E0BB27ED938A95E9F780E00E
:1000A40098E0A0E6ED930197E9F7EEE6F0E085919C
:1000B4009591009761F0A591B59105901590BF01B8
:1000C400F00105900D920197E1F7FB01F0CFEFE508
:1000D400EDBFE8E0EEBFC0E6D2E00C948000AA9346
:1000E400E881E064E7B98BE18A95F1F7369A349BAD
:1000F400FECF349AE4B1F5B10C943602E0E0EBBBE8
:10010400EABBE8BBE7BBEFEFE5BBE0E0E4BBE2BB87
:10011400E1BBE3BFE2BFECBFEFBDEEBDEDBDECBDA7
:10012400E7BDE6BDEBBDEABDE9BDE8BDE2BDE5BDA9
:10013400E4BDE3BDE5BFE4BFE9BFEAB9E0E8E8B97F
:10014400E0E0E0BFE0E4E7B9E5E8E6B9E0E0EDB916
:10015400E6BFA0E10E940A020E94D801E2E0EA930D
:10016400A0E00E94CB01A0E6B2E00E94F901A0E069
:10017400B6DF2F01F2010E948D02AEE3B9E78CE9EC
:1001840090E40E94E2030E9421032F01D201EAE0DD
:10019400F0E00E94B9042F01E5E0EA93A1E00E9497
:1001A400CB01F2010E948D020E94DB04E2E0EA939B
:1001B400ACE6B2E00E94E800ACE6B2E00E94F901CD
:1001C400A8EEB3E00E94E202D2CFFFCFBA93AA9383
:1001D4002497E0E0E883E983EA83EFE3EB831A936F
:1001E4000A93EB85FC85EF3FAFEFFA0739F40E94E1
:1001F4009202A2E6B0E00E948002A7C0EF3FAFE700
:10020400FA0739F40E949202A3E6B0E00E94800249
:100214009CC0AC85AA2362F4E985FA856B857C854C
:100224000E94EC020E9497020E949C02EDE2EC9371
:10023400A885A73010F0E6E0E8871885E12F115073
:10024400E03039F00E94A3020E94A8020E94AF028B
:10025400F5CF0E94B4020E9492030E94970210E01C
:10026400E0E0F0E060E87FE30E94AF020E94B402A5
:100274000E94750488F00E94A3020E94BD020E949D
:10028400AF021F5F173238F00E949202A7E6B0E077
:100294000E9480025AC0EACF103029F40E949C02C6
:1002A400E0E3EC932AC0E12F1150E03031F10E94D9
:1002B400A3020E94A802A0E0B0E080E09FE30E94B5
:1002C4009203DF01CB010E9469020E94AF020E94E7
:1002D400B4020E9430040E941F030E2F0E949C024D
:1002E4000E94C4020E94A3020E948D020E94E203A3
:1002F4000E94CA020E94CF02D6CFE885E03009F1FD
:100304000E949C02EEE2EC93E885E150E887EF5FFF
:10031400C1F00E94CA020E94BD020E949702E985B0
:10032400FA856B857C850E941F030E2F0E949C0218
:100334000E94C4020E94CA020E948D020E94CF023F
:10034400E3CFAE81BF81E0E0EC93198108812D9663
:100354000895AA93E5B3EF70AE2FE881E07FEA2B0E
:10036400E5BB85E08A95F1F7AA9A8DE08A95F1F7C5
:10037400AA988DE08A95F1F777C0AA93A881E9DF5E
:10038400E881E295E883A881E4DF85E88A95F1F7BE
:100394006BC0AA93E881F0E0EB58FD4FE081A9819E
:1003A400AE0FEBDF7980688022960895A2E00E9468
:1003B400D402ACE0E2DFA1E00E94D402E0E06E2EC1
:1003C4007E2E0895AA93A881AA3011F0791448F0DA
:1003D400E0E0EA936394A62DDCDFA881AA3009F457
:1003E40043C07394A89AA881C8DFA8983DC0BA9363
:1003F400AA931A93A981BA81ED91A983BA831E2F76
:10040400E03019F0A12FDEDFF5CF1881239608958F
:10041400AA93E4B3E06FE4BBA29AA09AA19AAA9823
:10042400A898A9989880E881E058E0937702E88139
:10043400E054E0937802A4E1B0E00E94E2020E945A
:10044400DA020E94DA020E94DA02A0E282DF88EC79
:1004540090E00197F1F7A8E290DFA4E08EDFA5E831
:100464008CDFA6E08ADFA2DF219608950E94E004D3
:100474007B816A81F981E88177FB770F67FD716081
:10048400972F9E5781F078F0983190F4AA27BB27D4
:10049400882708948795B795A7959A95D1F7EA2365
:1004A400FB23682305C0E8947727EE27FF276627F8
:1004B4006F77769508F4606877F9A991B991899175
:1004C4009991EA17FB076807790797FB08950E943B
:1004D400E0040E94D1040E9438020E94D60419F458
:1004E4000E94CC0409C0E6F70E94CC04A0E0B0E06E
:1004F40080E89FE30E948B0324960895BA93AA93FD
:10050400E991F991A991B991CD0105900D9200203D
:10051400E1F7FC0108950E94A1040E945803089584
:10052400EE81FF81FA93EA930895E987FA876B874E
:100534007C870895AE81BF811196AE83BF831197E6
:100544000895AA81BB818C819D810895EDECFCEC1A
:100554006CEC7DE30E94E2030895EA83FB836C83E1
:100564007D830895EA81FB816C817D81A985BA85AB
:100574008B859C850895E0E0F0E060E271E40E94E0
:10058400E2030895E02FE05DEC93E02FF0E008959E
:10059400A985BA858B859C8508950E94E5040E94EF
:1005A4008B03C3CF0E94BF01A3E0B0E00C94E2022E
:1005B400A0E30E94AB0188EC90E00197F1F7089565
:1005C400109639F080ED97E00197F1F7A89511970F
:1005D400C9F7089530976040704009F07058089545
:1005E400552342F4503811F4E0FF04C03196691FDA
:1005F400791F6BF050E8572711F45F93CFC05F3F2A
:1006040031F0660F000C57956795752F08955F9329
:1006140000200AF0CFC0C8C050E8192E1522880F58
:10062400991F9527550F879550E8072E0522660FC9
:10063400771F7527550F67950895689401C0E8944E
:100644005F93F2DF703818F07F3F08F4A7C056E1DB
:10065400571BAAF4519558300EF4593030F0EFEF8F
:10066400FFEF6FEF7FE777F91AC077275523B9F0CB
:10067400EE0FFF1F661F771F5A95D1F710C077271B
:10068400583028F0EF2FF62F672F5850F9CF552305
:1006940031F076956795F795E7955A95D1F700204F
:1006A4000AF445D15F910895689401C0E8943097A5
:1006B40060407040B1F0002426F0772312F40094D7
:1006C40036D1172E7EE1112032F07A95EE0FFF1FFE
:1006D400661F111CF9CFEF2FF62F612D5F938ADF70
:1006E4005F9108954F93AF01FD01DA01AB01BC01A5
:1006F400CA01402D012C142E4F910895EA0FFB1FBF
:10070400681F0895E095F0956095EF5FFF4F6F4F78
:1007140008955F9381DF903871F150E8152604C085
:100724005F937ADF903839F1703821F1572F591BD4
:100734002BF112F4D7DFFACF583118F0AA27BB27D0
:100744008827583028F0AB2FB82F88275850F9CF76
:10075400552329F08695B795A7955A95D9F7502D25
:10076400512572F0CBDF38F46795F795E7957395CB
:1007740013F420C0B7DF3EDF5F910895D8F7FBCFB5
:10078400EA1BFB0B680B51F010F40094BBDF6623EB
:1007940092F3EE0FFF1F661F7A95CBF7EE27FF2724
:1007A400662777275F910895EFEFFFEF6FE77FEFFD
:1007B4005F910895EFEFFFEF6FE77FE75F91089593
:1007C4005F932ADF703851F3903841F30124089481
:1007D400791F23F41CF300203AF3ECCF0F921F93FC
:1007E4002F933F934F93112722279927689FA001A6
:1007F4008F9F302D410D591F6B9F300D411D591F87
:100804008E9F27D0BF9F25D06A9F23D0BE9F1DD027
:10081400AF9F1BD0AE9F110D291F391F491F591FB0
:10082400E32FF42F652F522F4F913F912F911F915A
:100834000F9066232AF0550FEE1FFF1F661F02C09C
:1008440073954BF2CDDE5F910895100D211D391F74
:1008540002C0200D311D491F591F08955F93DCDE2E
:10086400703821F411200AF49FCFA4CF903809F4F2
:1008740095CF01240894970B1BF4D4F30020F3CFF5
:10088400792F1F932F933F934F93112411272227DE
:1008940033274427552790E2AE17BF078607410741
:1008A40030F0AE1BBF0B860B410B089401C088943B
:1008B400551F221F331F111CAA1FBB1F881F441F53
:1008C4009A9551F7F901612D4F913F912F911F9105
:1008D400662332F0550FEE1FFF1F661F7A9543F211
:1008E4007FDE5F91089599239AF0772342F097175A
:1008F40048F029F4AE17BF07860720F031F098942A
:100904008894089598940894089518948894089560
:100914007723C2F7971798F3A9F7EA17FB07680735
:1009240088F399F3ECCFF195E195F0400895F095B3
:1009340060957095E195FF4F6F4F7F4F08956F2F2E
:10094400660F660B762F08950024112490E1AA0FF8
:10095400BB1F001C111C0E1A1F0A18F40E0E1F1EBA
:1009640001C0A1609A9599F7FD01D001089504D0C2
:10097400EBDF0EF4D8DF0895E894F7FF02C0D3DF6D
:100984006894B7FF06C0A095B095119600F803943B
:1009940000FA0895E881F9816A817B810895A8812C
:1009A400B9818A819B810895E883F9836A837B8373
:1009B40008957A936A93FA93EA9308959A938A939B
:1009C400BA93AA930895182E862F612D192E972F66
:1009D400712D1B2EBF2FF12D1A2EAE2FE12D089550
:00000001FF
